:1000A600EFB41A0040030201919000B6F8282873B5
:1000B60002010402010902010E02011302011802E3
:1000C600011D02012202012702012C020131020157
:1000D6003602013B02014002014502014A02014F7C
:1000E60002015402015902015E0201630201680223
:1000F600016D02017502017D02018202018AA201DF
:1001060092A122A20192A022A20192A722A201926A
:10011600A622A20192A522A20192A422A20192A540
:1001260022A20192A522A20192DB22A20192DA2248
:10013600A20192B622A20192DC22A20192A322A2DD
:100146000192A222A20192B122A20192B022A201A0
:1001560092B322A20192B222A20192B522A20192E8
:10016600B422A20192C82220C821A20192C922204B
:10017600C819A20192CA22A20192CB2220CB0CA2BC
:0C0186000192CC2220CB04A20192CD22D9
:10021800120415D3EF94007480948040F312028C7A
:100228009001C0EFF0540164017003D38001C392C0
:10023800009001C0E0543EC313FFC3941A74809425
:0A024800805007A20092011200A6E8
:010252002289
:1003B100A2D8E433FFA2D9B3E433FE25E04FFF1204
:0703C10002537F6902038370
:100192001203DE12006043A80212041F43A88090DB
:1001A20001BFE0640170F8F0120415D3EF940074FB
:1001B20080948040EA12028C9001C0EFF0640270D9
:1001C2000512021880D99001C0E0640470D11203B4
:0801D200B17F9612038380C780
:1003C800E4F584758850758921758E10758C2875AB
:0603D8008A81758D2722C9
:07000300758401759850227D
:0A04050075840F75E10475E34422CD
:0C03ED0075FFDE75FFADE4F584F5EF222E
:1001DA00E4FFFE75840F758C2075890453A1DFF541
:1001EA008475B79075840F43A120438901758D01E9
:1001FA00758F21758E020FBF00010EEF640F4E70CE
:0D020A00F5438902E589541060FA759702EA
:0102170022C4
:04041B0075A8082296
:0F03DE001203ED1203C81200031204050201DA24
:03000B000202F3FB
:0D02F300C0E0C083C082C0D075D000C0073D
:10030000AF84758400C28DC28C758C28758A81D2A9
:090310008C8F849001BF7401F090
:0B031900D007D0D0D082D083D0E032DB
:06040F009000DFE0FF2277
:06041500900000E0FF2250
:1002C0007E96900000E0C394DC5025900002E0FD93
:1002D0002403F582E43400F583EFF0ED049000028E
:1002E000F0C394DC4002E4F0900000E004F07E698A
:0202F000AF0657
:0102F20022E9
:100253007E969000DFE0C394DC502B53E7BF900001
:10026300E1E0FD24E2F582E43400F583EFF0ED04F0
:100273009000E1F0C394DC4002E4F09000DFE0047E
:08028300F07E6943E740AF067D
:01028B002250
:100355009000DFE06023A3E0FE24E2F582E43400B0
:10036500F583E0FBEE049000E0F0C394DC4002E48A
:0D037500F09000DFE014F08002E4FBAF0325
:010382002258
:10028C00900000E0602953E7BFA3E0FE2403F58251
:10029C00E43400F583E0FBEE04900001F0C394DC41
:1002AC004002E4F0900000E014F043E7408002E4E8
:0302BC00FBAF0392
:0102BF00221C
:10032400900000E0C39F4024EFFDA3E02DFDE433E3
:10033400FCC3ED94DCEC9400400474242DFD7403A0
:100344002DF582E43400F583E0FE8002E4FEAF067E
:010354002286
:100060009001BE7496F0FF120383E4900002F090BA
:1000700000E1F0900001F09000E0F0900000F090BE
:1000800000DFF0FF74032FF582E43400F583E4F021
:1000900074E22FF582E43400F583E4F00FEFB4DC72
:0100A000E37C
:0100A100223C
:10038300AEE753E7BFEF64696005EF6496701A90B8
:1003930001BEE06496700DEFB46909AD8475840104
:0D03A300D2998D849001BEEFF0AF068FE778
:0103B000222A
:04041F0043E740224D
:0300A30002000E4A
:10000E00C0E0C083C082C0D075D000C003C004C0A1
:05001E0005C006C0074B
:10002300AC84758401309807C298AF991202C0302E
:100033009914C29912040FEF60071203558F998028
:0A004300057F96120383AF048F843B
:10004D00D007D006D005D004D003D0D0D082D08335
:03005D00D0E032BE
:030000000203F9FF
:0C03F900787FE4F6D8FD758120020192A7
:00000001FF
